:10000000FE2F00308A000408840A820700343E3440
:100010004134413441343E34003442347F3440343E
:10002000003472344934493449344634213441343B
:1000300049344D3433341834143412347F3410348A
:10004000273445344534453439343C344A34493412
:1000500049343134413421341134093407343634CD
:1000600049344934493436344634493449342934DE
:100070001E34FF34FF34FF34FF34FF347F34083440
:10008000083408347F34263449344934493432340E
:100090007C3408340434043478343C344034403400
:1000A00020347C344434643454344C3444343E344A
:1000B0004134413441343E34003442347F3440349E
:1000C000003472344934493449344634213441349B
:1000D00049344D3433341834143412347F341034EA
:1000E000273445344534453439343C344A34493472
:1000F000493431344134213411340934073436342D
:10010000493449344934363446344934493429343D
:100110001E34FF34FF34FF34FF34FF347F3408349F
:10012000083408347F34263449344934493432346D
:100130007C3408340434043478343C34403440345F
:0E01400020347C344434643454344C3444341D
:10024C0075083621740836210800F3008312031355
:10025C008611061273087321831203130616080005
:10026C00F30083120313861506127308732183128D
:10027C00031306160800F300F201731C49297008D9
:10028C00F1007108F2070310F00D0310F30C730862
:10029C00031D432972080800F401F501701C5C2948
:1002AC007208F4070318F50A7308F50701300310F8
:1002BC00F20DF30DFF3E031D5D2901300310F10C0F
:1002CC00F00CFF3E031D642970087104031D5429B2
:1002DC007508F1007408F0000800F1008312031394
:1002EC0086140614F2010830720203180800061076
:1002FC007108F0007203FF3A073E013E8729031094
:10030C00F00CFF3E031D8529701C902983120313EA
:10031C008614932983120313861006140130F000FF
:10032C007008F2077929831203132308220421048D
:10033C0020040319DE29A901A90AA31BB329013042
:10034C00A8000310A00DA10DA20DA30DA80BA729A9
:10035C000130A8002808A907A32923082702031D98
:10036C00C12922082602031DC12921082502031DCB
:10037C00C12920082402031CD1292008A402210829
:10038C00031C210FA5022208031C220FA60223081E
:10039C00031C230FA70201300310A30CA20CA10C09
:1003AC00A00CFF3E031DD2290130A902031DB32965
:1003BC002708A3002608A2002508A1002408A000F5
:1003CC000800FB0015302B217B082B2176082B21F4
:1003DC0075302B2177082B2178082B217B08831271
:1003EC000313A000A101A009A109A00A0319A10AE5
:1003FC0076082007A20021080318210AA30022086E
:10040C00013EF00023080318013E003EF10077087E
:10041C00A400A501A409A509A40A0319A50A780832
:10042C002407A60025080318250AA7002608013E64
:10043C00F20027080318013E003EF3005221710818
:10044C00FD007008FC007C087D04031908007A0884
:10045C00F5007908F40026210130FC020030031C61
:10046C00FD03FD02292A0030FC000030FB000030A7
:10047C00FA000030F9007308720471047004031957
:10048C008E2AFD01FD0AF31B592A0130F8000310D6
:10049C00F00DF10DF20DF30DF80B4D2A0130F800B3
:1004AC007808FD07492A0130F8000310F90DFA0D00
:1004BC00FB0DFC0DF80B5B2A73087702031D702AE9
:1004CC0072087602031D702A71087502031D702ACA
:1004DC0070087402031C812A7008F4027108031C52
:1004EC00710FF5027208031C720FF6027308031CDD
:1004FC00730FF702791401300310F30CF20CF10CAA
:10050C00F00CFF3E031D822A0130FD02031D592A07
:10051C007C08F3007B08F2007A08F1007908F000FF
:10052C00080083120313B700B9010630390203180F
:10053C00080005303906031DA52AB601B42A05307A
:10054C00AD002D08F000290841218312031339074F
:10055C00513E84000120AE002E08B600B8010830D0
:10056C0038020318FF2A361CF32A2C08AD002D087C
:10057C00F00039084121831203133707AE002C0811
:10058C002E07AF002F08F6002C08B0003008F00042
:10059C0038084121831203132807B1003108F700F2
:1005AC002C08B2003208F0003808412183120313E2
:1005BC002807B3002C083307B4003408F8002B08C4
:1005CC00FA002A08F9002C08B5003508F0003908A3
:1005DC004121831203133707E721031083120313FE
:1005EC00B60C0130AD002D08B80708303802031CDA
:1005FC00B92A0130AD002D08B9079B2A83120313C9
:10060C0006150230F6000430F500BA30F400F40B95
:10061C000D2BF50B0D2BF60B0D2B0000831203137A
:10062C0006110D30F500FB30F400F40B1B2BF50B11
:10063C001B2B202B8312031306150D30F500FB30FA
:10064C00F400F40B272BF50B272B2C2BAE302B2186
:10065C00A0302B2172302B21A1302B2100302B21EB
:10066C00A2302B2100302B21A4302B21A8302B21A0
:10067C003F302B21AD302B218E302B21B0302B2154
:10068C000B302B21B1302B2131302B21B3302B21CE
:10069C00F0302B218A302B2164302B218B302B21F5
:1006AC0078302B218C302B2164302B21BB302B212B
:1006BC003A302B21BE302B213E302B2187302B2181
:1006CC0014302B2181302B21FF302B2182302B2118
:1006DC00FF302B2183302B21FF302B21AF302B21EE
:1006EC0008000730831203139F00E03083160313B6
:1006FC008600F0308500A03081000E308312031389
:10070C009000861406140616061504235F30831217
:10071C000313BA003A08F600F7011F30BB003B0880
:10072C00F800FF30F900FF30FA000030E7215F30AD
:10073C0083120313BA003A08F6002030BB003B08C2
:10074C00F7003F30BC003C08F800E030F9000730FF
:10075C00FA000030E721173083120313BA003A086D
:10076C00A8000B30BB003B08A9001F30AA000030CA
:10077C00AB00AC01AC0A5030972217308312031334
:10078C00BA003A08A8000F30BB003B08A9001F3084
:10079C00AA000030AB00AC01AC0A573097223530C0
:1007AC0083120313BA003A08A8000C30BB003B08B4
:1007BC00A9000030AA00F830AB00AC01AC0A5730ED
:1007CC00972283120313C001BE01BF018E018F015A
:1007DC000C10C101101481010B110C18FE2B0B1DF8
:1007EC00F32B0130BE070318BF0A0030BF07F22BF2
:1007FC000108BA003A08C00010103E08BA003F08C1
:10080C00BB00BC01BD0108300310BA0DBB0DBC0D03
:10081C00BD0DFF3E031D0A2C40083A07CB003B08D8
:10082C0003183B0F0310CC003C0803183C0F0310BB
:10083C00CD003D0803183D0ACE000030F3000F3008
:10084C00F2004230F1004030F0004E08F7004D0845
:10085C00F6004C08F5004B08F4003922700883129E
:10086C000313BA003A08C8000030A3000030A200FD
:10087C000030A1000A30A0000030F3000130F2007B
:10088C008630F100A030F0004E08F7004D08F6005D
:10089C004C08F5004B08F40039227308831203133B
:1008AC00A7007208A6007108A5007008A400992181
:1008BC00831203132008BA003A08C7000030A300C3
:1008CC000030A2000030A1000A30A0000030F3007C
:1008DC000030F2002730F1001030F0004E08F70025
:1008EC004D08F6004C08F5004B08F400392273084B
:1008FC0083120313A7007208A6007108A5007008E4
:10090C00A4009921831203132008BA003A08C600E8
:10091C000030A3000030A2000030A1000A30A0007B
:10092C000030F3000030F2000330F100E830F0004A
:10093C004E08F7004D08F6004C08F5004B08F40083
:10094C003922730883120313A7007208A6007108DA
:10095C00A5007008A4009921831203132008BA0083
:10096C003A08C5000030A3000030A2000030A100FE
:10097C000A30A0000030F3000030F2000030F1002B
:10098C006430F0004E08F7004D08F6004C08F500F6
:10099C004B08F4003922730883120313A700720862
:1009AC00A6007108A5007008A400992183120313F6
:1009BC002008BA003A08C4000030A3000030A2009E
:1009CC000030A1000A30A0000030F3000030F2002B
:1009DC000030F1000A30F0004E08F7004D08F60028
:1009EC004C08F5004B08F4003922730883120313EA
:1009FC00A7007208A6007108A5007008A400992130
:100A0C00831203132008BA003A08C3000030A30075
:100A1C000030A2000030A1000A30A0004E08A70050
:100A2C004D08A6004C08A5004B08A4009921831280
:100A3C0003132008BA003A08C2000630BA003A087C
:100A4C00CA004A080319A82D4A08423E84008313A1
:100A5C000008031D552D4108031D552D0C30BA00FF
:100A6C003A08F0004A084121FF3A013E503E8312F9
:100A7C000313BB003B08C9000530BA003A08A800B4
:100A8C000A30BB003B08A900FF30AA00FF30AB00C6
:100A9C000230BC003C08AC0049089722A12D0C3058
:100AAC0083120313BA003A08F0004A084121FF3AB6
:100ABC00013E503E83120313BB003B08C9000530B6
:100ACC00BA003A08A8000A30BB003B08A900FF3066
:100ADC00AA00FF30AB000230BC003C08AC00490857
:100AEC0097220C3083120313BA003A08F0004A081C
:100AFC004121FF3A013E503E83120313BB003B08D9
:100B0C00C9000530BA003A08A8004A08423E8400E1
:100B1C0083130008BB003B08A9000030AA00F83082
:100B2C00AB000230BC003C08AC0049089722831291
:100B3C000313C101C10A013083120313CA024A080C
:100B4C00031D2A2D0530BA003A08A8000A30BB0054
:100B5C003B08A900FF30AA00FF30AB000230BC00FC
:100B6C003C08AC0050309722053083120313BA00B6
:100B7C003A08A8004208BB003B08A9000030AA00B4
:100B8C00F830AB000230BC003C08AC00503097226F
:100B9C0083120313C1015530BA003A08F600353000
:100BAC00BB003B08F7003D30BC003C08F800E030CF
:100BBC00F9000730FA005030E721831203134E0876
:100BCC00031D162E4D08031D162E03304C02031D5B
:100BDC00F32DE8304B02031DF32D0318162E4E088F
:100BEC00F3004D08F2004C08F1004B08F000003007
:100BFC00F7000F30F6004230F5004030F400392297
:100C0C00730883120313CE007208CD007108CC0058
:100C1C007008CB003530BA003A08A8000E30382ED8
:100C2C00831203134E08F3004D08F2004C08F10038
:100C3C004B08F0003B30F7009A30F600CA30F50054
:100C4C000030F4003922730883120313CE007208AB
:100C5C00CD007108CC007008CB003530BA003A08D2
:100C6C00A8000D30BB003B08A9000030AA00F830EA
:100C7C00AB00AC01AC0A503097220030F3000F30BF
:100C8C00F2004230F1004030F000831203134E08A2
:100C9C00F7004D08F6004C08F5004B08F40039221B
:100CAC00700883120313BA003A08C8000030A3007E
:100CBC000030A2000030A1000A30A0000030F30088
:100CCC000130F2008630F100A030F0004E08F70041
:100CDC004D08F6004C08F5004B08F4003922730857
:100CEC0083120313A7007208A6007108A5007008F0
:100CFC00A4009921831203132008BA003A08C700F4
:100D0C000030A3000030A2000030A1000A30A00087
:100D1C000030F3000030F2002730F1001030F0000A
:100D2C004E08F7004D08F6004C08F5004B08F4008F
:100D3C003922730883120313A7007208A6007108E6
:100D4C00A5007008A4009921831203132008BA008F
:100D5C003A08C6000030A3000030A2000030A10009
:100D6C000A30A0000030F3000030F2000330F10034
:100D7C00E830F0004E08F7004D08F6004C08F5007E
:100D8C004B08F4003922730883120313A70072086E
:100D9C00A6007108A5007008A40099218312031302
:100DAC002008BA003A08C5000030A3000030A200A9
:100DBC000030A1000A30A0000030F3000030F20037
:100DCC000030F1006430F0004E08F7004D08F600DA
:100DDC004C08F5004B08F4003922730883120313F6
:100DEC00A7007208A6007108A5007008A40099213C
:100DFC00831203132008BA003A08C4000030A30081
:100E0C000030A2000030A1000A30A0000030F30036
:100E1C000030F2000030F1000A30F0004E08F7000C
:100E2C004D08F6004C08F5004B08F4003922730805
:100E3C0083120313A7007208A6007108A50070089E
:100E4C00A4009921831203132008BA003A08C300A6
:100E5C000030A3000030A2000030A1000A30A00036
:100E6C004E08A7004D08A6004C08A5004B08A4008E
:100E7C009921831203132008BA003A08C2000630E5
:100E8C00BA003A08CA004A080319C92F4A08423E58
:100E9C00840083130008031D772F4108031D772F4F
:100EAC000C30BA003A08F0004A084121FF3A013EE2
:100EBC00503E83120313BB003B08C9002330BA0019
:100ECC003A08A8000A30BB003B08A900E030AA0091
:100EDC000730AB000230BC003C08AC00490897223C
:100EEC00C22F0C3083120313BA003A08F0004A08E0
:100EFC004121FF3A013E503E83120313BB003B08D5
:100F0C00C9002330BA003A08A8000A30BB003B08DD
:100F1C00A900E030AA000730AB000230BC003C084E
:100F2C00AC00490897220C3083120313BA003A081C
:100F3C00F0004A084121FF3A013E503E8312031350
:100F4C00BB003B08C9002330BA003A08A8004A0885
:100F5C00423E840083130008BB003B08A90000300C
:100F6C00AA00AB000230BC003C08AC004908972238
:100F7C0083120313C101C10A013083120313CA0285
:100F8C004A08031D4C2F2330BA003A08A8000A3037
:100F9C00BB003B08A900E030AA000730AB000230D0
:100FAC00BC003C08AC005030972223308312031352
:100FBC00BA003A08A8004208BB003B08A900003060
:100FCC00AA00AB000230BC003C08AC0050309722A9
:100FDC000B3083120313BC002630BB005D30BA000B
:100FEC00BA0BF62FBB0BF62FBC0BF62F0000E72B22
:040FFC008301772BCB
:02400E0058FF59
:00000001FF
